:100000000C9434000C9446000C9446000C9446006A
:100010000C9446000C9446000C9446000C94460048
:100020000C9446000C9446000C9446000C94460038
:100030000C9446000C9446000C94FD000C94460071
:100040000C94EE000C9446000C9446000C94460070
:100050000C9446000C9446000C9446000C94460008
:100060000C9446000C94460011241FBECFEFD8E03C
:10007000DEBFCDBF21E0A0E0B1E001C01D92A03005
:10008000B207E1F70E9487000C9437030C9400003C
:100090008FEF8AB91BB884B584BD85B5856085BDF1
:1000A00083E080936E0078940895ECE7F0E010828E
:1000B00080E4808380818660808383E880937A00F7
:1000C0000895ECE7F0E0108280E480838081836013
:1000D000808383E880937A000895ECE7F0E0108253
:1000E00080E4808380818260808383E880937A00CB
:1000F0000895EAE7F0E080818064808380917A004F
:1001000086FDFCCF809178009091790008950E943F
:10011000480080E887BD0E9455000E940C010E94A3
:100120007900BC0180E090E00E943C0222E337E7C6
:1001300041E650E40E94CA0220E030EE45E954E472
:100140000E942F010E940D02CB010E941C018FE32F
:100150009CE90197F1F700C000000E9461000E9435
:1001600021010E947900BC0180E090E00E943C02E5
:1001700020E030E84DE853E40E94CA0220E030E479
:100180004CE156E40E949B0120E030E040E151E464
:100190000E942F010E940D02CB010E942B018FE3D0
:1001A0009CE90197F1F700C000000E946D000E94D9
:1001B0007900BC0180E090E00E943C0220E030E049
:1001C0004FE753E40E94CA0220E030EC4FE754E4CA
:1001D0000E949B010E940D0267BD9DCF1F920F924E
:1001E0000FB60F9211248F938BB184608BB98F91CE
:1001F0000F900FBE0F901F9018951F920F920FB681
:100200000F9211248F938BB18B7F8BB98F910F90AD
:100210000FBE0F901F90189582E8809380008AE1AE
:100220008093810080E49CE990938700809386000E
:1002300084B1826084B90895909389008093880086
:10024000089581E28093B00087E08093B1008AB185
:1002500088608AB908958093B40008955058BB27E8
:10026000AA270E9446010C9490020E94820238F054
:100270000E94890220F039F49F3F19F426F40C946F
:100280007F020EF4E095E7FB0C947902E92F0E94BF
:10029000A10258F3BA17620773078407950720F085
:1002A00079F4A6F50C94C3020EF4E0950B2EBA2F48
:1002B000A02D0B01B90190010C01CA01A00111246C
:1002C000FF27591B99F0593F50F4503E68F11A1618
:1002D000F040A22F232F342F4427585FF3CF4695A9
:1002E00037952795A795F0405395C9F77EF41F16CB
:1002F000BA0B620B730B840BBAF09150A1F0FF0F95
:10030000BB1F661F771F881FC2F70EC0BA0F621F80
:10031000731F841F48F4879577956795B795F79570
:100320009E3F08F0B0CF9395880F08F09927EE0F05
:100330009795879508950E94AF010C9490020E94B2
:10034000890258F00E94820240F029F45F3F29F0B0
:100350000C94790251110C94C4020C947F020E94F7
:10036000A10268F39923B1F3552391F3951B550B23
:10037000BB27AA2762177307840738F09F5F5F4F78
:10038000220F331F441FAA1FA9F335D00E2E3AF0B7
:10039000E0E832D091505040E695001CCAF72BD0CF
:1003A000FE2F29D0660F771F881FBB1F2617370720
:1003B0004807AB07B0E809F0BB0B802DBF01FF2752
:1003C00093585F4F3AF09E3F510578F00C947902B4
:1003D0000C94C4025F3FE4F3983ED4F3869577957E
:1003E0006795B795F7959F5FC9F7880F911D96950B
:1003F000879597F90895E1E0660F771F881FBB1F67
:10040000621773078407BA0720F0621B730B840B13
:10041000BA0BEE1F88F7E09508950E94A90288F0B4
:100420009F5798F0B92F9927B751B0F0E1F0660FB8
:10043000771F881F991F1AF0BA95C9F714C0B130F9
:1004400091F00E94C302B1E008950C94C302672F9B
:10045000782F8827B85F39F0B93FCCF38695779528
:100460006795B395D9F73EF4909580957095619511
:100470007F4F8F4F9F4F0895E89409C097FB3EF43C
:1004800090958095709561957F4F8F4F9F4F9923E1
:10049000A9F0F92F96E9BB279395F695879577955F
:1004A0006795B795F111F8CFFAF4BB0F11F460FF1F
:1004B0001BC06F5F7F4F8F4F9F4F16C0882311F077
:1004C00096E911C0772321F09EE8872F762F05C08B
:1004D000662371F096E8862F70E060E02AF09A9526
:1004E000660F771F881FDAF7880F9695879597F91B
:1004F000089597F99F6780E870E060E008959FEFA6
:1005000080EC089500240A941616170618060906AA
:10051000089500240A941216130614060506089579
:10052000092E0394000C11F4882352F0BB0F40F401
:10053000BF2B11F460FF04C06F5F7F4F8F4F9F4F41
:10054000089557FD9058440F551F59F05F3F71F0C3
:100550004795880F97FB991F61F09F3F79F087952A
:100560000895121613061406551FF2CF4695F1DFB3
:1005700008C0161617061806991FF1CF8695710543
:10058000610508940895E894BB2766277727CB0177
:1005900097F908950E94DD020C9490020E94820255
:1005A00038F00E94890220F0952311F00C94790212
:1005B0000C947F0211240C94C4020E94A10270F3D7
:1005C000959FC1F3950F50E0551F629FF001729FF8
:1005D000BB27F00DB11D639FAA27F00DB11DAA1F07
:1005E000649F6627B00DA11D661F829F2227B00D54
:1005F000A11D621F739FB00DA11D621F839FA00DDF
:10060000611D221F749F3327A00D611D231F849F2E
:10061000600D211D822F762F6A2F11249F57504085
:100620009AF0F1F088234AF0EE0FFF1FBB1F661F00
:10063000771F881F91505040A9F79E3F510580F0C9
:100640000C9479020C94C4025F3FE4F3983ED4F317
:10065000869577956795B795F795E7959F5FC1F76D
:10066000FE2B880F911D9695879597F90895F8941C
:02067000FFCFBA
:00000001FF
