:020000020000FC
:100000000FEF0DBF08E00EBF00E00AB90FEF0BB90C
:100010000FEF04B91FEF30E040E009B11017E9F32A
:100020000E94470009B11017C1F3102F02FD0E9472
:10003000340003FD0E94340004FD0E94230005FDEE
:100040000E942300EACF04FF0E942A0005FF0E94BD
:100050002F00E3CF403009F34A9538B908954F3067
:10006000A1F0439538B9089502FF0E943B0003FFB9
:100070000E944000D2CF303081F23A9535B90895D0
:100080003F3019F0339535B9089530E0C6CF2FEFE2
:100090002A952030E9F72FEF2A952030E9F72FEF46
:0800A0002A952030E9F70895CC
:00000001FF
