:100000000C9434000C9451000C9451000C94510049
:100010000C9451000C9451000C9451000C9451001C
:100020000C9451000C949E000C9451000C945100BF
:100030000C9451000C9451000C9451000C945100FC
:100040000C94F4000C9451000C9451000C94510049
:100050000C9451000C9443010C9451000C945100E9
:100060000C9451000C94510011241FBECFEFD8E026
:10007000DEBFCDBF11E0A0E0B1E0EAE2F3E002C0F4
:1000800005900D92A231B107D9F721E0A2E1B1E0CC
:1000900001C01D92A731B207E1F70E949B000C94AA
:1000A00093010C940000ECE7F0E010828081806402
:1000B0008083808180628083808186608083EAE79C
:1000C000F0E01082808183608083808188608083FB
:1000D0008081806880830895809116018BB908958E
:1000E0008FEF8AB91BB887B18C7F87B988B18360DD
:1000F00088B984B1876084B985B1887F85B914BC1B
:1001000085E085BD81E080936E001092B00092E0A2
:100110009093B100809370001092B2000E9453003F
:10012000EAE7F0E0808180648083109216010E94EB
:100130006C00789408950E947000FFCF1F920F9278
:100140000FB60F9211242F933F934F935F936F93AA
:100150007F938F939F93AF93BF93EF93FF9385B15B
:10016000887F85B980911301813089F018F0823041
:10017000D1F01FC0E0911201E295EF70F0E0EF5F67
:10018000FE4F80818BB985B1816085B912C0E09145
:100190001201EF70F0E0EF5FFE4F80818BB985B107
:1001A000826085B906C01BB80E946C0085B184606E
:1001B00085B98091130190E0019663E070E00E94A0
:1001C0006B0180931301FF91EF91BF91AF919F91CC
:1001D0008F917F916F915F914F913F912F910F90F0
:1001E0000FBE0F901F9018951F920F920FB60F928F
:1001F00011242F938F939F93EF93FF9386B180FDEC
:1002000014C0E4E1F1E090819F5F90839530A0F00D
:100210009091000190FF05C0209116012F5F20935F
:1002200016019E7F9093000107C0109214019091D7
:10023000000191609093000181FD14C0E4E1F1E0C0
:1002400081818F5F81838530A0F08091000181FFE3
:1002500005C0909116019150909316018D7F809367
:10026000000107C010921501809100018260809307
:100270000001FF91EF919F918F912F910F900FBEF1
:100280000F901F9018951F920F920FB60F92112486
:100290008F939F93EF93FF93809179008093120146
:1002A0009091120180911601891720F485B1886020
:1002B00085B903C085B1877F85B9EAE7F0E0808121
:1002C00080648083FF91EF919F918F910F900FBE7B
:1002D0000F901F90189597FB072E16F4009407D0E7
:1002E00077FD09D00E947F0107FC05D03EF4909570
:1002F00081959F4F0895709561957F4F0895AA1B32
:10030000BB1B51E107C0AA1FBB1FA617B70710F000
:10031000A61BB70B881F991F5A95A9F78095909532
:0A032000BC01CD010895F894FFCF51
:10032A000340792430191202780010080346210686
:02033A000E00B3
:00000001FF
