:100000000C9434000C9451000C9451000C94510049
:100010000C9451000C9451000C9451000C9451001C
:100020000C9451000C949F000C9451000C945100BE
:100030000C9451000C9451000C9451000C945100FC
:100040000C94FA000C9451000C9451000C94510043
:100050000C9451000C9449010C9451000C945100E3
:100060000C9451000C94510011241FBECFEFD8E026
:10007000DEBFCDBF11E0A0E0B1E0E6E3F3E002C0F7
:1000800005900D92A231B107D9F721E0A2E1B1E0CC
:1000900001C01D92A731B207E1F70E9496000C94AF
:1000A00099010C940000ECE7F0E0108280818064FC
:1000B0008083808180628083808186608083EAE79C
:1000C000F0E01082808183608083808188608083FB
:1000D00080818068808308958FEF8AB91BB887B1CB
:1000E0008C7F87B988B1836088B984B18F6084B907
:1000F00014BC85E085BD81E080936E001092B00055
:1001000092E09093B100809370001092B2000E9430
:100110005300EAE7F0E0808180648083109216014A
:1001200078940895809116018BB908950E946C000F
:1001300083EC99E00197F1F700C00000F9CF1F921E
:100140000F920FB60F9211242F933F934F935F930B
:100150006F937F938F939F93AF93BF93EF93FF938F
:10016000809113018130A1F018F0823001F127C095
:1001700085B1887F85B9E0911201E295EF70F0E0DA
:10018000EF5FFE4F80818BB985B1816085B917C063
:1001900085B1887F85B9E0911201EF70F0E0EF5FE3
:1001A000FE4F80818BB985B1826085B908C085B169
:1001B000887F85B985B1846085B90E94920080915D
:1001C000130190E0019663E070E00E94710180935A
:1001D0001301FF91EF91BF91AF919F918F917F910B
:1001E0006F915F914F913F912F910F900FBE0F90A4
:1001F0001F9018951F920F920FB60F9211242F93F4
:100200008F939F93EF93FF9386B180FD14C0E4E139
:10021000F1E090819F5F90839530A0F09091000174
:1002200090FF05C0209116012F5F209316019E7F3D
:100230009093000107C01092140190910001916009
:100240009093000181FD14C0E4E1F1E081818F5FB2
:1002500081838530A0F08091000181FF05C09091DD
:1002600016019150909316018D7F8093000107C075
:100270001092150180910001826080930001FF912E
:10028000EF919F918F912F910F900FBE0F901F9024
:1002900018951F920F920FB60F9211248F939F9370
:1002A000EF93FF9380917900809312019091120156
:1002B00080911601891720F485B1886085B903C043
:1002C00085B1877F85B9EAE7F0E08081806480832B
:1002D000FF91EF919F918F910F900FBE0F901F9004
:1002E000189597FB072E16F4009407D077FD09D0D8
:1002F0000E94850107FC05D03EF4909581959F4FA3
:100300000895709561957F4F0895AA1BBB1B51E11D
:1003100007C0AA1FBB1FA617B70710F0A61BB70B75
:10032000881F991F5A95A9F780959095BC01CD011A
:060330000895F894FFCFD0
:10033600034079243019120278001008034621067A
:020346000E00A7
:00000001FF
