S00F00005072656C6162342E737265638B
S11300000C9434000C9451000C9451000C94510045
S11300100C9451000C9451000C9451000C94510018
S11300200C9451000C947E000C9451000C945100DB
S11300300C9451000C9451000C9451000C945100F8
S11300400C94B6000C9451000C9451000C94510083
S11300500C9451000C9451000C9451000C945100D8
S11300600C9451000C94510011241FBECFEFD8E022
S1130070DEBFCDBF11E0A0E0B1E0EEE6F2E002C0E9
S113008005900D92A230B107D9F721E0A2E0B1E0CA
S113009001C01D92A630B207E1F70E947B000C94C8
S11300A035010C940000809105018BB908958FEF00
S11300B08AB91BB887B18C7F87B988B1836088B946
S11300C084B1876084B985B1887F85B914BC85E023
S11300D085BD81E080936E001092B00092E0909311
S11300E0B100809370001092B200109205010E943A
S11300F05300789408950E945700FFCF1F920F92E7
S11301000FB60F9211245F936F937F938F939F93F6
S1130110AF93BF9385B1887F85B980910201813007
S113012041F018F0823049F00BC085B1816085B987
S113013007C085B1826085B903C085B1846085B983
S11301408091020190E0019663E070E00E940D014D
S113015080930201BF91AF919F918F917F916F9195
S11301605F910F900FBE0F901F9018951F920F92E2
S11301700FB60F9211242F933F934F935F936F9376
S11301807F938F939F93AF93BF93CF93EF93FF93FB
S1130190C6B18C2F83709091000180930001C0FD43
S11301A012C0E3E0F1E080818F5F8083808185303D
S11301B060F0809105018F5F809305010E945300D8
S11301C01092030102C010920301C1FD12C0E3E0CA
S11301D0F1E081818F5F81838181853060F080913E
S11301E005018150809305010E945300109204017F
S11301F002C010920401FF91EF91CF91BF91AF9192
S11302009F918F917F916F915F914F913F912F912A
S11302100F900FBE0F901F90189597FB072E16F4A2
S1130220009407D077FD09D00E94210107FC05D076
S11302303EF4909581959F4F0895709561957F4FF9
S11302400895AA1BBB1B51E107C0AA1FBB1FA61719
S1130250B70710F0A61BB70B881F991F5A95A9F76B
S111026080959095BC01CD010895F894FFCFD0
S105026E030087
S9030000FC
