:100000000C9434000C9451000C9451000C94510049
:100010000C9451000C9451000C9451000C9451001C
:100020000C9451000C9451000C9451000C9451000C
:100030000C9451000C9451000C9451000C945100FC
:100040000C9451000C9451000C94DB000C94510062
:100050000C9451000C9451000C9451000C945100DC
:100060000C9451000C94510011241FBECFEFD8E026
:10007000DEBFCDBF11E0A0E0B1E0E0EEF1E002C0F4
:1000800005900D92A037B107D9F721E0A0E7B1E0C4
:1000900001C01D92A237B207E1F70E9493000C94B1
:1000A000EE000C9400008AB182608AB98AB18E7F1A
:1000B0008AB91092C00088E98093C10086E08093DD
:1000C000C20087E690E09093C5008093C400089535
:1000D000F89484B1836084B985B18C7F85B987B188
:1000E0008E7F87B988B1816088B90E945300789467
:1000F00008959091C00095FFFCCF8093C6000895AD
:100100000F931F93CF938C01C0E003C00E9479002E
:10011000CF5FF801EC0FF11D80818111F7CFCF91F6
:100120001F910F9108950E94680080E091E00E9465
:10013000800080E191E00E9480008091700188231E
:10014000C9F01092700180917101813341F485B141
:10015000816085B982E491E00E9480000BC08091AB
:100160007101803339F485B18E7F85B982E591E0E4
:100170000E9480003099E1CF2FEF80E792E021507C
:1001800080409040E1F700C000003099D6CF95B193
:1001900082E0892785B980E691E00E948000489B33
:1001A000FECF2FEF80E792E0215080409040E1F7B2
:1001B00000C00000C2CF1F920F920FB60F92112401
:1001C0008F938091C6008093710181E080937001CC
:1001D0008F910F900FBE0F901F901895F894FFCF3E
:1001E0000A53697374656D61206C6973746F0A00DA
:1001F000456E766965202731272070617261206520
:100200006E63656E646572204C454431206F202713
:1002100030272070617261206170616761726C6F5C
:100220000A004C45443120656E63656E6469646FF5
:100230000A004C454431206170616761646F0A00B7
:100240004C4544322063616D626961646F0A00004D
:00000001FF
