S01700004763634170706C69636174696F6E312E737265635B
S11300000C9434000C943E000C943E000C943E007E
S11300100C943E000C943E000C943E000C943E0064
S11300200C943E000C943E000C943E000C943E0054
S11300300C943E000C943E000C943E000C943E0044
S11300400C943E000C943E000C943E000C943E0034
S11300500C943E000C943E000C943E000C943E0024
S11300600C943E000C943E0011241FBECFEFD8E048
S1130070DEBFCDBF0E94A6000C94DE020C940000EB
S113008080E480937C0087E880937A00089517B811
S11300908FEF84B90895ECE7F0E09081907F8F7042
S11300A0892B8083EAE7F0E08081806480838091FB
S11300B07A0086FDFCCF80917800909179000895B4
S11300C0E0E8F0E08081826A8083E1E8F0E080810A
S11300D08A61808388EE9DEF9093870080938600E9
S11300E084B1866084B90895E0EBF0E08081836A8E
S11300F08083E1EBF0E08081876080838AB188604F
S11301008AB984B1886084B9089584B5836A84BD4A
S113011085B5856085BD8AB180648AB98AB18062FB
S11301208AB90895909389008093880008959093E4
S11301308B0080938A0008958093B3000895809380
S1130140B400089587BD089588BD08950E944700AE
S11301500E9440000E9460000E9474000E9485007A
S113016086E00E944B00BC0180E090E00E94E30125
S113017028E431EE4AEF5FEB0E94710220E030E4A4
S113018043E055E40E9448010E94B401CB010E945F
S1130190920086E00E944B00BC0180E090E00E9447
S11301A0E30128E431EE4AEF5FE30E94710220E0AC
S11301B030EE45E954E40E9448010E94B401CB01A9
S11301C00E94970086E00E944B00BC0180E090E012
S11301D00E94E30127EF35E740E65CE30E947102E9
S11301E020E030E040E151E40E9448010E94B40163
S11301F0CB010E949C0087E00E944B00BC0180E080
S113020090E00E94E30124E132E240EE5BE30E94CD
S1130210710220E030E040E151E40E9448010E9474
S1130220B401CB010E949F0080E00E944B00BC01FE
S113023080E090E00E94E30124E237E94FE75BE3CA
S11302400E94710220E030E040E151E40E94480144
S11302500E94B401CB010E94A20080E00E944B00E6
S1130260BC0180E090E00E94E30124E237E94FE71B
S11302705BEB0E94710220E030E040E551E40E9413
S113028048010E94B401CB010E94A40069CF5058D8
S1130290BB27AA270E945F010C9437020E942902FF
S11302A038F00E94300220F039F49F3F19F426F40C
S11302B00C9426020EF4E095E7FB0C942002E92F3F
S11302C00E94480258F3BA17620773078407950718
S11302D020F079F4A6F50C946A020EF4E0950B2E46
S11302E0BA2FA02D0B01B90190010C01CA01A00184
S11302F01124FF27591B99F0593F50F4503E68F1DF
S11303001A16F040A22F232F342F4427585FF3CF1F
S1130310469537952795A795F0405395C9F77EF4F0
S11303201F16BA0B620B730B840BBAF09150A1F039
S1130330FF0FBB1F661F771F881FC2F70EC0BA0FBF
S1130340621F731F841F48F4879577956795B79547
S1130350F7959E3F08F0B0CF9395880F08F0992742
S1130360EE0F9795879508950E94500288F09F5745
S113037098F0B92F9927B751B0F0E1F0660F771FC5
S1130380881F991F1AF0BA95C9F714C0B13091F0BB
S11303900E946A02B1E008950C946A02672F782FD4
S11303A08827B85F39F0B93FCCF386957795679580
S11303B0B395D9F73EF490958095709561957F4FEC
S11303C08F4F9F4F0895E89409C097FB3EF4909592
S11303D08095709561957F4F8F4F9F4F9923A9F01A
S11303E0F92F96E9BB279395F695879577956795A9
S11303F0B795F111F8CFFAF4BB0F11F460FF1BC0ED
S11304006F5F7F4F8F4F9F4F16C0882311F096E97F
S113041011C0772321F09EE8872F762F05C066232D
S113042071F096E8862F70E060E02AF09A95660FE6
S1130430771F881FDAF7880F9695879597F908959F
S113044097F99F6780E870E060E008959FEF80EC83
S1130450089500240A941616170618060906089526
S113046000240A9412161306140605060895092E8C
S11304700394000C11F4882352F0BB0F40F4BF2BFB
S113048011F460FF04C06F5F7F4F8F4F9F4F08953B
S113049057FD9058440F551F59F05F3F71F0479531
S11304A0880F97FB991F61F09F3F79F08795089516
S11304B0121613061406551FF2CF4695F1DF08C035
S11304C0161617061806991FF1CF86957105610552
S11304D008940895E894BB2766277727CB0197F9FA
S11304E008950E9484020C9437020E94290238F075
S11304F00E94300220F0952311F00C9420020C94F9
S1130500260211240C946B020E94480270F3959FFA
S1130510C1F3950F50E0551F629FF001729FBB27F6
S1130520F00DB11D639FAA27F00DB11DAA1F649F92
S11305306627B00DA11D661F829F2227B00DA11D45
S1130540621F739FB00DA11D621F839FA00D611DCB
S1130550221F749F3327A00D611D231F849F600DEC
S1130560211D822F762F6A2F11249F5750409AF015
S1130570F1F088234AF0EE0FFF1FBB1F661F771FA1
S1130580881F91505040A9F79E3F510580F00C946C
S113059020020C946B025F3FE4F3983ED4F38695FB
S11305A077956795B795F795E7959F5FC1F7FE2B0C
S11305B0880F911D9695879597F90895F894FFCF24
S9030000FC
