:100000000C9434000C9451000C9451000C94510049
:100010000C9451000C9451000C9451000C9451001C
:100020000C9451000C9451000C9451000C9451000C
:100030000C9451000C9451000C9451000C945100FC
:100040000C9451000C9451000C9478010C945100C4
:100050000C9451000C9451000C9451000C945100DC
:100060000C9451000C94510011241FBECFEFD8E026
:10007000DEBFCDBF11E0A0E0B1E0ECE7F3E002C0ED
:1000800005900D92A23EB107D9F721E0A2EEB1E0B2
:1000900001C01D92A53EB207E1F70E94F4000C9446
:1000A000BC010C9400008AB182608AB98AB18E7F4B
:1000B0008AB91092C00088E98093C10086E08093DD
:1000C000C20087E690E09093C5008093C400089535
:1000D00080E480937C0087E880937A000895F89408
:1000E00084B18F6184B98AB1806E8AB915B88BB139
:1000F0008F718BB90E9468000E9453007894089514
:10010000ECE7F0E09081907F8F70892B8083EAE7A5
:10011000F0E080818064808380917A0086FDFCCF4E
:10012000809178009091790096958795969587951E
:1001300008959091C00095FFFCCF8093C60008956C
:100140000F931F93CF938C01C0E003C00E949900CE
:10015000CF5FF801EC0FF11D80818111F7CFCF91B6
:100160001F910F91089580E091E00E94A00080E12E
:1001700091E00E94A0000895CF93C82F843648F0E4
:1001800089E2C89F812D112482958F70805D0E9425
:100190009900CA30B0F09DECC99F812D112486953D
:1001A00086958695899F912D11249695969596957D
:1001B000990F292F220F220F920F891B805D0E9419
:1001C00099009DECC99F912D112496959695969531
:1001D000990F892F880F880F980F8C2F891B805DAE
:1001E0000E949900CF9108950E946F000E94B30071
:1001F0008091E3018823E1F31092E3018091E20111
:1002000081114EC08091E401803389F58BE491E047
:100210000E94A00080E00E948000C82F282F392F64
:10022000AFEFB0E00E94AD012FEF33E040E050E0CF
:100230000E948B01822F8F7185B98BB18F71207EC7
:10024000282B2BB98FE591E00E94A0008C2F0E94F3
:10025000990080E791E00E94A0008C2F0E94BC00D2
:100260008AEC91E00E94A0000E94B300C1CF80916F
:10027000E401813371F48DE791E00E94A00089E8E8
:1002800091E00E94A00081E08093E2011092E301DE
:10029000AFCF83EB91E00E94A0000E94B300A8CFF3
:1002A00081E08093E2018091E4018F7185B92BB1E7
:1002B0009091E401907E892F90E095958795959592
:1002C000879595958795922F9F71892B8BB98CEC8B
:1002D00091E00E94A0008091E4010E9499008AECC4
:1002E00091E00E94A0001092E2010E94B30080CF32
:1002F0001F920F920FB60F9211248F938091C60018
:100300008093E40181E08093E3018F910F900FBE11
:100310000F901F901895A1E21A2EAA1BBB1BFD017E
:100320000DC0AA1FBB1FEE1FFF1FA217B307E407D4
:10033000F50720F0A21BB30BE40BF50B661F771F2C
:10034000881F991F1A9469F760957095809590950C
:100350009B01AC01BD01CF010895A29FB001B39FE5
:10036000C001A39F700D811D1124911DB29F700DBE
:0C037000811D1124911D0895F894FFCF09
:10037C000A53697374656D61206C6973746F0A003C
:10038C00456E766965202730272070617261206C7C
:10039C0065657220706F74656E63696F6D657472DC
:1003AC006F206F20273127207061726120656E7677
:1003BC006961722061736369690A004D6F646F2013
:1003CC00506F74656E63696F6D6574726F0A00416E
:1003DC00444330202831302062697473293A20005C
:1003EC00202D3E203820626974733A20004D6F64D2
:1003FC006F2061736369690A000A496E67726573DD
:10040C006520756E20636172616374657220706122
:10041C0072612068616365726C6F20415343494976
:10042C003A2000494E534552544152204F504349B3
:10043C004F4E2056414C4944412E0A000A436172EA
:10044C00616374657220726563696269646F3A20D6
:02045C0000009E
:00000001FF
