:100000000C9434000C9451000C9451000C94510049
:100010000C9451000C9451000C9451000C9451001C
:100020000C9451000C9451000C9451000C9451000C
:100030000C9451000C9451000C9451000C945100FC
:100040000C9451000C9451000C94DA010C94510062
:100050000C9451000C9451000C9451000C945100DC
:100060000C9451000C94510011241FBECFEFD8E026
:10007000DEBFCDBF11E0A0E0B1E0E4E3F7E002C0F5
:1000800005900D92A23EB107D9F721E0A2EEB1E0B2
:1000900001C01D92A53EB207E1F70E9449010C94F0
:1000A00098030C9400008AB182608AB98AB18E7F6D
:1000B0008AB91092C00088E98093C10086E08093DD
:1000C000C20087E690E09093C5008093C400089535
:1000D00080E480937C0087E880937A000895F89408
:1000E00084B18F6184B98AB1806E8AB915B88BB139
:1000F0008F718BB90E9468000E9453007894089514
:10010000ECE7F0E09081907F8F70892B8083EAE7A5
:10011000F0E080818064808380917A0086FDFCCF4E
:10012000809178009091790008959091C00095FF9A
:10013000FCCF8093C60008950F931F93CF938C013B
:10014000C0E003C00E949500CF5FF801EC0FF11DE5
:1001500080818111F7CFCF911F910F91089580E099
:1001600091E00E949C0080E191E00E949C00089533
:10017000CF93DF93EC01883E23E09207A0F09C012F
:10018000369527953695279536952795A5ECB0E2B7
:100190000E948903929582958F7089279F70892785
:1001A000805D0E949500C436D10548F19E013695C8
:1001B000279536952795ABE7B4E10E948903AC01FA
:1001C000569547959A01ADECBCEC0E948903969533
:1001D000879596958795969587959C01220F331F55
:1001E000880F991F880F991F880F991F820F931FDF
:1001F0009A01281B390BC901805D0E949500CA3005
:10020000D10538F19E01ADECBCEC0E948903AC0134
:100210005695479556954795569547959A010E944C
:1002200089039695879596958795969587959C01D0
:10023000220F331F880F991F880F991F880F991F4E
:10024000820F931F9A01281B390BC901805D0E9400
:1002500095009E01ADECBCEC0E94890396958795B4
:1002600096958795969587959C01220F331F880F49
:10027000991F880F991F880F991F820F931F9E0146
:10028000281B390BC901805D0E949500DF91CF9139
:1002900008950E946F000E94AF008091E3018823BF
:1002A000E1F31092E3018091E201811159C0809144
:1002B000E4018033E1F58BE491E00E949C0080E052
:1002C0000E948000EC018FE591E00E949C00CE012D
:1002D0000E94B800BE0180E090E00E948E0220E003
:1002E00030E04FE753E40E941C0320E030EC4FE77E
:1002F00054E40E94ED010E945F02C62F862F8F7189
:1003000085B98BB1982F9F718C2F807E892B8BB9EB
:1003100080E791E00E949C008C2F90E00E94B80042
:100320008AEC91E00E949C000E94AF00B6CF8091C1
:10033000E401813371F48DE791E00E949C0089E82B
:1003400091E00E949C0081E08093E2011092E30121
:10035000A4CF83EB91E00E949C000E94AF009DCF50
:100360008091E201813009F098CF8091E4018F7192
:1003700085B92BB19091E401907E892F90E09595FD
:1003800087959595879595958795922F9F71892B40
:100390008BB98CEC91E00E949C008091E4010E945A
:1003A00095008AEC91E00E949C001092E2010E946C
:1003B000AF0073CF1F920F920FB60F9211248F933D
:1003C0008091C6008093E40181E08093E3018F91E6
:1003D0000F900FBE0F901F9018950E9401020C9471
:1003E000E2020E94DB0258F00E94D40240F029F49D
:1003F0005F3F29F00C94CB0251110C9416030C941E
:10040000D1020E94F30268F39923B1F3552391F3CB
:10041000951B550BBB27AA2762177307840738F073
:100420009F5F5F4F220F331F441FAA1FA9F335D0D0
:100430000E2E3AF0E0E832D091505040E695001C84
:10044000CAF72BD0FE2F29D0660F771F881FBB1F3E
:10045000261737074807AB07B0E809F0BB0B802D1C
:10046000BF01FF2793585F4F3AF09E3F510578F048
:100470000C94CB020C9416035F3FE4F3983ED4F344
:10048000869577956795B795F7959F5FC9F7880F1C
:10049000911D9695879597F90895E1E0660F771F6E
:1004A000881FBB1F621773078407BA0720F0621BFF
:1004B000730B840BBA0BEE1F88F7E09508950E942A
:1004C000FB0288F09F5798F0B92F9927B751B0F0E9
:1004D000E1F0660F771F881F991F1AF0BA95C9F7C8
:1004E00014C0B13091F00E941503B1E008950C944E
:1004F0001503672F782F8827B85F39F0B93FCCF301
:10050000869577956795B395D9F73EF49095809544
:10051000709561957F4F8F4F9F4F0895E89409C064
:1005200097FB3EF490958095709561957F4F8F4F26
:100530009F4F9923A9F0F92F96E9BB279395F6953C
:10054000879577956795B795F111F8CFFAF4BB0FBA
:1005500011F460FF1BC06F5F7F4F8F4F9F4F16C01E
:10056000882311F096E911C0772321F09EE8872FA8
:10057000762F05C0662371F096E8862F70E060E064
:100580002AF09A95660F771F881FDAF7880F9695DD
:10059000879597F9089597F99F6780E870E060E084
:1005A00008959FEF80EC089500240A94161617060C
:1005B00018060906089500240A9412161306140654
:1005C00005060895092E0394000C11F4882352F0B7
:1005D000BB0F40F4BF2B11F460FF04C06F5F7F4F6F
:1005E0008F4F9F4F089557FD9058440F551F59F056
:1005F0005F3F71F04795880F97FB991F61F09F3F10
:1006000079F087950895121613061406551FF2CF38
:100610004695F1DF08C0161617061806991FF1CF88
:1006200086957105610508940895E894BB276627AF
:100630007727CB0197F908950E942F030C94E202CB
:100640000E94D40238F00E94DB0220F0952311F0C2
:100650000C94CB020C94D10211240C9416030E942A
:10066000F30270F3959FC1F3950F50E0551F629F01
:10067000F001729FBB27F00DB11D639FAA27F00DFB
:10068000B11DAA1F649F6627B00DA11D661F829F22
:100690002227B00DA11D621F739FB00DA11D621F07
:1006A000839FA00D611D221F749F3327A00D611D24
:1006B000231F849F600D211D822F762F6A2F112406
:1006C0009F5750409AF0F1F088234AF0EE0FFF1F39
:1006D000BB1F661F771F881F91505040A9F79E3F90
:1006E000510580F00C94CB020C9416035F3FE4F3A9
:1006F000983ED4F3869577956795B795F795E795E6
:100700009F5FC1F7FE2B880F911D9695879597F9EE
:100710000895A29FB001B39FC001A39F700D811DDA
:100720001124911DB29F700D811D1124911D0895FA
:04073000F894FFCF6B
:100734000A53697374656D61206C6973746F0A0080
:10074400456E766965202730272070617261206CC0
:1007540065657220706F74656E63696F6D65747220
:100764006F206F20273127207061726120656E76BB
:100774006961722061736369690A004D6F646F2057
:10078400506F74656E63696F6D6574726F0A0041B2
:10079400444330202831302062697473293A2000A0
:1007A400202D3E203820626974733A20004D6F6416
:1007B4006F2061736369690A000A496E6772657321
:1007C4006520756E20636172616374657220706167
:1007D40072612068616365726C6F204153434949BB
:1007E4003A2000494E534552544152204F504349F8
:1007F4004F4E2056414C4944412E0A000A4361722F
:10080400616374657220726563696269646F3A201A
:020814000000E2
:00000001FF
