:020000020000FC
:040000000C9422003A
:04000C000C945C00F4
:100040000C946E000FEF0DBF08E00EBFF89400E8AF
:100050000093610004E00093610000E004BD03E050
:1000600005BD01E000936E000FEF04B90FEF0AB970
:1000700000E007B90FEF08B903E000936B0001E05F
:100080000093680000E00093C10050E040E020E0F1
:100090007FEF30E078940E94A7000E94E6000E9463
:1000A000AE000E94E6000E94B5000E94E6000E9499
:1000B000BC000E94E600EFCF0F930FB70F9356B12D
:1000C000652F64FF0E948E0063FF0E94920001E092
:1000D00000931B000F910FBF0F9118950F930FB74F
:1000E0000F931395BAE02B1302C00E949F00B6E055
:1000F0003B1302C00E94C300BAE04B1302C00E942F
:10010000A200B6E05B1302C00E94C7001D3311F4C9
:1001100010E023950F910FBF0F9118952F3069F0C4
:1001200023950895203089F02A95B0E02B1302C062
:100130000E949B0008953A95089520E00895339514
:1001400020E00895539540E008954FE008952998E0
:10015000289A2A982B980E94CA0008952898299ACC
:100160002A982B980E94D100089528982A9A2998B5
:100170002B980E94D800089528982B9A2A9829989D
:100180000E94DF00089530E020E04395089540E0AC
:1001900050E00895F1E0EEEFE20FF11D04910BB98C
:1001A0000895F1E0EEEFE30FF11DA491ABB90895CE
:1001B000F1E0EEEFE40FF11DA491ABB90895F1E089
:1001C000EEEFE50FF11DA491ABB908959FEF9A955D
:1001D0009030E9F79FEF9A959030E9F79FEF9A9565
:1001E0009030E9F708959A959030E9F708959A9537
:1001F0009030E9F708959A959030E9F7089540799D
:0E020000243019120278001008034621060E61
:00000001FF
