:020000020000FC
:040000000C9422003A
:040014000C94CD007B
:100040000C94A1000FEF0DBF08E00EBFF89400E87C
:100050000093610004E00093610000E004BD03E050
:1000600005BD01E000936E000FEF04B90FEF0AB970
:1000700000E007B90FEF08B90E946A0003E000939F
:100080006B0001E00093680001E000936E0000E067
:100090000093C100442755276627772788273327F1
:1000A00099272227789438B9403029F0413081F0DF
:1000B000423079F0F8CF30FD0E94710030FF0E948D
:1000C0007D0030FF0E94890030FF0E949500EBCF39
:1000D000EACFE9CF00E004BD03E005BD04E606BDBC
:1000E00008952B982A9829982898F1E0E6EAE50FD8
:1000F000F11D04910BB9289A08952B982A982998F4
:100100002898F1E0E6EAE60FF11D04910BB9299A6F
:1001100008952B982A9829982898F1E0E6EAE70FA5
:10012000F11D04910BB92A9A08952B982A982998C1
:100130002898F1E0E6EAE80FF11D04910BB92B9A3B
:1001400008950F930FB70F9304E606BD33952395DB
:100150002233F9F422274F9A3436D9F43327939572
:100160009C33B9F4992753955A3099F455276395E0
:10017000663079F4662773957A3011F47727839582
:10018000823039F4743029F4882777276627552779
:1001900000C00F910FBF0F91189509E0401301C0E7
:1001A00044271895189540792430191202780010C8
:0601B00008034621060EC3
:00000001FF
