:020000020000FC
:100000000FEF0DBF08E00EBF00E80093610004E0B1
:10001000009361000FEF0AB90FEF07B900E004B9D0
:100020000FEF05B91FEF30E040E099E103B1101781
:10003000449A9BB9D9F30E94670003B11017B1F33A
:10004000102F02FF0E94460003FF0E94460000FF9F
:100050000E94330001FF0E94330004FF0E946000F1
:100060000E945A00E3CF00FF0E943A0001FF0E9465
:100070003F0008954030D1F24A954BB908954F3072
:1000800019F043954BB9089540E0D0CF02FF0E948C
:100090004D0003FF0E94520008953F3039F23A9517
:1000A0005BB908953F3F21F033950E945A000895AF
:1000B00030E0BCCF532F5F705295542B5BB908953D
:1000C00060E0632F6F704F70640F68B908952FEF71
:1000D0002A952030E9F72FEF2A952030E9F72FEF06
:0800E0002A952030E9F708958C
:00000001FF
