:020000020000FC
:040000000C9422003A
:04000C000C944C0004
:100040000C945F000FEF0DBF08E00EBFF89400E8BE
:100050000093610004E00093610000E004BD03E050
:1000600005BD01E000936E000FEF07B90FEF0AB96D
:1000700000E004B90FEF05B903E000936B0001E065
:100080000093680000E00093C10040E020E07FEFB3
:1000900078940E947D00FDCF0F930FB70F9353B15B
:1000A000652F60FF0E946F0061FF0E94730048B9D6
:1000B00001E000931B000F910FBF0F9118950F9354
:1000C0000FB70F93F894139578942A3091F01D335D
:1000D00011F410E023950F910FBF0F9118954F3039
:1000E00031F043950895403031F04A95089540E04D
:1000F000089520E008954FE00895F1E0E8E0E20F70
:10010000F11D04910BB90895407924301912027839
:08011000001008034621060E51
:00000001FF
