:100000000C9434000C943E000C943E000C943E0082
:100010000C943E000C943E000C943E000C943E0068
:100020000C943E000C943E000C943E000C943E0058
:100030000C943E000C943E000C943E000C943E0048
:100040000C943E000C943E000C943E000C943E0038
:100050000C943E000C943E000C943E000C943E0028
:100060000C943E000C943E0011241FBECFEFD8E04C
:10007000DEBFCDBF0E94D1010C9414040C9400008B
:10008000F8948FEF84B98CEF87B98AB180638AB90D
:100090007894089580E480937C0087E880937A00C8
:1000A0000895ECE7F0E09081907F8F70892B80833A
:1000B000EAE7F0E080818064808380917A0086FDA9
:1000C000FCCF8091780090917900089582EA809326
:1000D00080008DE1809381008FEF90E09093870006
:1000E0008093860084B1866084B9089581EA809304
:1000F000B00087E08093B1008AB188608AB984B18A
:10010000886084B9089590938900809388009093C3
:100110008B0080938A0008958093B40008958093A3
:10012000B30008959B012A5B3140AC014A5B51400A
:100130002D383105B0F06A3B714050F465B1606212
:1001400065B968B1686068B968B16B7E68B909C0A3
:1001500065B16F7D65B968B1646168B968B1677F81
:1001600068B94D385105C8F02D383105B0F48A3BD7
:10017000914050F485B1806285B988B1837F88B998
:1001800088B1806188B909C085B18F7D85B988B192
:100190008C6088B988B18F7E88B94D38510548F494
:1001A0002D38310530F485B18F7D85B988B1837ED6
:1001B00088B90895803E21E0920728F5BC0180E0CF
:1001C00090E00E94190320E030E04FE753EC0E94DA
:1001D000A70320E030E040EF53E40E9478020E9441
:1001E000EA0270E080E090E00E941B0320E030E033
:1001F0004FE753E40E940C020E94EA02862F90E02F
:100200000E94830008959C0129503240263F3140CE
:10021000E8F4BC0180E090E00E94190320E030E0A7
:100220004FE753E40E94A70320E030E84BEF53E48C
:100230000E9478022CE53FEC43E853E40E940B0255
:100240000E94EA02862F90E00E9483000895803E7B
:1002500021E0920728F5BC0180E090E00E9419039C
:1002600020E030E04FE753EC0E94A70320E030E0AD
:1002700040EF53E40E9478020E94EA0270E080E0BE
:1002800090E00E941B0320E030E04FE753E40E941F
:100290000C020E94EA02862F90E00E9483000895DB
:1002A0009C0129503240263F3140E8F4BC0180E0F7
:1002B00090E00E94190320E030E04FE753E40E94F1
:1002C000A70320E030E84BEF53E40E9478022CE5CE
:1002D0003FEC43E853E40E940B020E94EA02862F9F
:1002E00090E00E9483000895803E21E0920758F537
:1002F0002BB120622BB92BB12F7E2BB9BC0180E032
:1003000090E00E94190320E030E04FE753EC0E9498
:10031000A70320E030E040EF53E40E9478020E94FF
:10032000EA0270E080E090E00E941B0320E030E0F1
:100330004FE753E40E940C020E94EA02862F90E0ED
:100340000E948F0008959C0129503240263F314081
:1003500020F52BB12F7D2BB92BB120612BB9BC011E
:1003600080E090E00E94190320E030E04FE753E482
:100370000E94A70320E030E84BEF53E40E9478028C
:100380002CE53FEC43E853E40E940B020E94EA0292
:10039000862F90E00E948F0008958BB18F7C8BB9DF
:1003A00008950E9440000E944A000E94660081E079
:1003B0000E9451008C0180E00E945100EC01BC01C0
:1003C000C8010E949200C8010E94DA00CE010E947A
:1003D00027010E94760087E00E945100BC0180E066
:1003E00090E00E94190320E030E04FE753E40E94C0
:1003F000A70320E030EC4FE754E40E9478020E940B
:10040000EA02862F90E00E948C0086E00E94510054
:100410000E947401CACF5058BB27AA270E9423020A
:100420000C946D030E945F0338F00E94660320F075
:1004300039F49F3F19F426F40C945C030EF4E09514
:10044000E7FB0C945603E92F0E947E0358F3BA177A
:10045000620773078407950720F079F4A6F50C94DA
:10046000A0030EF4E0950B2EBA2FA02D0B01B901BD
:1004700090010C01CA01A0011124FF27591B99F01A
:10048000593F50F4503E68F11A16F040A22F232F26
:10049000342F4427585FF3CF469537952795A79576
:1004A000F0405395C9F77EF41F16BA0B620B730B1D
:1004B000840BBAF09150A1F0FF0FBB1F661F771F8E
:1004C000881FC2F70EC0BA0F621F731F841F48F443
:1004D000879577956795B795F7959E3F08F0B0CFCC
:1004E0009395880F08F09927EE0F979587950895B3
:1004F0000E948C020C946D030E94660358F00E94C7
:100500005F0340F029F45F3F29F00C94560351112A
:100510000C94A1030C945C030E947E0368F399235E
:10052000B1F3552391F3951B550BBB27AA276217EF
:100530007307840738F09F5F5F4F220F331F441FFC
:10054000AA1FA9F335D00E2E3AF0E0E832D0915030
:100550005040E695001CCAF72BD0FE2F29D0660F1D
:10056000771F881FBB1F261737074807AB07B0E860
:1005700009F0BB0B802DBF01FF2793585F4F3AF066
:100580009E3F510578F00C9456030C94A1035F3FF5
:10059000E4F3983ED4F3869577956795B795F795EC
:1005A0009F5FC9F7880F911D9695879597F90895D4
:1005B000E1E0660F771F881FBB1F62177307840770
:1005C000BA0720F0621B730B840BBA0BEE1F88F77F
:1005D000E09508950E94860388F09F5798F0B92F00
:1005E0009927B751B0F0E1F0660F771F881F991F68
:1005F0001AF0BA95C9F714C0B13091F00E94A00367
:10060000B1E008950C94A003672F782F8827B85F76
:1006100039F0B93FCCF3869577956795B395D9F7BF
:100620003EF490958095709561957F4F8F4F9F4FC9
:100630000895E89409C097FB3EF4909580957095D5
:1006400061957F4F8F4F9F4F9923A9F0F92F96E91E
:10065000BB279395F695879577956795B795F11193
:10066000F8CFFAF4BB0F11F460FF1BC06F5F7F4F30
:100670008F4F9F4F16C0882311F096E911C0772342
:1006800021F09EE8872F762F05C0662371F096E84B
:10069000862F70E060E02AF09A95660F771F881F1A
:1006A000DAF7880F9695879597F9089597F99F67D8
:1006B00080E870E060E008959FEF80EC08950024EA
:1006C0000A941616170618060906089500240A94B7
:1006D00012161306140605060895092E0394000C3D
:1006E00011F4882352F0BB0F40F4BF2B11F460FFCC
:1006F00004C06F5F7F4F8F4F9F4F089557FD9058F5
:10070000440F551F59F05F3F71F04795880F97FBD5
:10071000991F61F09F3F79F087950895121613068F
:100720001406551FF2CF4695F1DF08C016161706BE
:100730001806991FF1CF86957105610508940895F3
:10074000E894BB2766277727CB0197F908950E9485
:10075000BA030C946D030E945F0338F00E94660395
:1007600020F0952311F00C9456030C945C03112493
:100770000C94A1030E947E0370F3959FC1F3950F23
:1007800050E0551F629FF001729FBB27F00DB11D15
:10079000639FAA27F00DB11DAA1F649F6627B00DA5
:1007A000A11D661F829F2227B00DA11D621F739F8E
:1007B000B00DA11D621F839FA00D611D221F749F9C
:1007C0003327A00D611D231F849F600D211D822FE3
:1007D000762F6A2F11249F5750409AF0F1F088230A
:1007E0004AF0EE0FFF1FBB1F661F771F881F915037
:1007F0005040A9F79E3F510580F00C9456030C948D
:10080000A1035F3FE4F3983ED4F38695779567950F
:10081000B795F795E7959F5FC1F7FE2B880F911D60
:0C0820009695879597F90895F894FFCFFE
:00000001FF
