:100000000C9478000C9495000C9495000C94950039
:100010000C9495000C94ED050C9495000C949500AF
:100020000C9495000C9495000C9495000C949500FC
:100030000C9495000C9495000C9495000C949500EC
:100040000C9495000C9495000C94A1050C949500CB
:100050000C9495000C9495000C9495000C949500CC
:100060000C9495000C949500C104CE04DB04E804C4
:10007000F504FC04030507050C051A051A051A0505
:100080001A051A051A051A051A051A051A051A0578
:100090001A051A051A051A051A051A051A051A0568
:1000A0001A051A051A051A051A051A051A051A0558
:1000B0001A051A051A051A051A051A051A051A0548
:1000C0001A051A051A051A051A051A051A051A0538
:1000D0001A051A051A051A051A051A051A051A0528
:1000E0001A051A051A051A051A051A051A0517051B
:1000F00011241FBECFEFD8E0DEBFCDBF11E0A0E0DE
:10010000B1E0E2EBF0E102C005900D92A032B10740
:10011000D9F721E0A0E2B1E001C01D92A733B207F8
:10012000E1F70E9412030C9457080C940000F9990F
:10013000FECF72BD61BD80BD8FB384608FBB8FB3B6
:1001400082608FBB0895F999FECF92BD81BD8FB3B8
:1001500081608FBB80B50895F8948FEF84B98CEFE0
:1001600087B98AB1806B8AB987B1806287B98AB151
:100170008B7B8AB98BB184648BB9EDE6F0E080812A
:1001800080648083E8E6F0E08081846080830E9460
:1001900004067894089580E480937C0087E8809337
:1001A0007A00089599B1892F847092FD0DC02FEFC8
:1001B00039EF90E0215030409040E1F700C000005E
:1001C0004A9903C081E0089580E008950E94D2001A
:1001D0008823A9F04A9BFECF2FEF89EF90E02150B2
:1001E00080409040E1F700C000008091250190E040
:1001F000019663E070E00E9429088093250108952C
:10020000ECE7F0E09081907F8F70892B8083EAE7A4
:10021000F0E080818064808380917A0086FDFCCF4D
:100220008091780090917900089582EA809380000F
:100230008DE1809381008FEF90E090938700809311
:10024000860084B1866084B9089581EA8093B00005
:1002500087E08093B1008AB188608AB984B18860F0
:1002600084B90895909389008093880090938B00BF
:1002700080938A0008958093B40008958093B3001A
:100280000895EF92FF920F931F93CF93DF937C011A
:10029000EB01CA5BD1408C010A5B1140CD38D1051E
:1002A00008F456C06A3B81E0780768F585B1806242
:1002B00085B988B1886088B988B18B7E88B980E0BB
:1002C00090E00E942E0720E030E04FE753EC0E94C0
:1002D000BC0720E030E040EF53E40E948D060E940E
:1002E000FF0670E080E090E00E94300720E030E000
:1002F0004FE753E40E9421060E94FF06862F90E0FC
:100300000E94320125C085B18F7D85B988B1846195
:1003100088B988B1877F88B980E090E00E942E0775
:1003200020E030E04FE753E40E94BC0720E030E8D3
:100330004BEF53E40E948D062CE53FEC43E853E479
:100340000E9420060E94FF06862F90E00E94320144
:100350000D38110508F45DC0CD38D10508F059C03D
:100360008AEBE81681E0F80670F585B1806285B900
:1003700088B1837F88B988B1806188B9B70180E08E
:1003800090E00E942E0720E030E04FE753EC0E94FF
:10039000BC0720E030E040EF53E40E948D060E944D
:1003A000FF0670E080E090E00E94300720E030E03F
:1003B0004FE753E40E9421060E94FF06862F90E03B
:1003C0000E94320126C085B18F7D85B988B18C60CD
:1003D00088B988B18F7E88B9B70180E090E00E942B
:1003E0002E0720E030E04FE753E40E94BC0720E0F6
:1003F00030E84BEF53E40E948D062CE53FEC43E8D8
:1004000053E40E9420060E94FF06862F90E00E947F
:1004100032010D38110548F4CD38D10530F485B1DD
:100420008F7D85B988B1837E88B9DF91CF911F9187
:100430000F91FF90EF900895803E21E0920758F5CC
:100440002BB120622BB92BB12F7E2BB9BC0180E0E0
:1004500090E00E942E0720E030E04FE753EC0E942E
:10046000BC0720E030E040EF53E40E948D060E947C
:10047000FF0670E080E090E00E94300720E030E06E
:100480004FE753E40E9421060E94FF06862F90E06A
:100490000E943E0108959C0129503240263F314080
:1004A00020F52BB12F7D2BB92BB120612BB9BC01CD
:1004B00080E090E00E942E0720E030E04FE753E418
:1004C0000E94BC0720E030E84BEF53E40E948D0609
:1004D0002CE53FEC43E853E40E9420060E94FF060F
:1004E000862F90E00E943E0108958BB18F7C8BB9DE
:1004F00080E090E00E943E0108959FEF980F9430B5
:1005000078F4E82FF0E03197EE0FFF1FEE0FFF1F9A
:10051000EE0FFF1FE050FF4F0190F081E02D608350
:1005200008959FEF980F943008F07BC0613069F117
:1005300020F0623009F44FC00895E82FF0E03197C1
:10054000EE0FFF1FEE0FFF1FEE0FFF1FE050FF4FDC
:10055000A281B3813C9181E090E0AC01068002C0B1
:10056000440F551F0A94E2F7242F209523232C9340
:10057000A481B5812C91078002C0880F991F0A942D
:10058000E2F7809582238C930895E82FF0E031976D
:10059000EE0FFF1FEE0FFF1FEE0FFF1FE050FF4F8C
:1005A000A281B3814C9181E090E09C01068002C061
:1005B000220F331F0A94E2F7242B2C93A481B581D8
:1005C0002C91078002C0880F991F0A94E2F780954A
:1005D00082238C930895E82FF0E03197EE0FFF1FF0
:1005E000EE0FFF1FEE0FFF1FE050FF4FA281B38100
:1005F0003C9181E090E0AC01068002C0440F551FA1
:100600000A94E2F7242F209523232C93A481B5810B
:100610002C91078002C0880F991F0A94E2F7822B61
:100620008C9308950E94AC000E94CB000E9415019B
:100630000E94E60080912501813009F4CAC038F09B
:10064000823009F447C1833009F4F6C1F1CF0E942A
:1006500015018BB180688BB988B18F7D88B981E035
:100660000E940001EC0180E00E940001BC01CE016B
:100670000E9441010E94250187E00E940001BC0107
:1006800080E090E00E942E0720E030E04FE753E446
:100690000E94BC0720E030EC4FE754E40E948D0636
:1006A0000E94FF06862F90E00E943B0186E00E9498
:1006B00000010E941C0280912401813009F0B8CF12
:1006C00080912201863008F0B3CF6091230181E050
:1006D000860F80932301809188009091890070E0BB
:1006E0000E9497006091230181E0860F809323018F
:1006F00085B170E085FB882780F90E9497006091A2
:10070000230181E0860F8093230188B170E082FB92
:10071000882780F90E9497006091230181E0860F6D
:100720008093230180918A0090918B0070E00E9459
:1007300097006091230181E0860F8093230188B1A7
:1007400070E083FB882780F90E9497006091230165
:1007500081E0860F8093230188B170E082958170DB
:100760000E9497006091230181E0860F809323010E
:100770008091B30070E00E9497006091230181E0B6
:10078000860F809323018BB170E085FB882780F969
:100790000E9497006091230181E0860F80932301DE
:1007A0008BB170E0829581700E9497006091230167
:1007B00081E0860F809323018091B40070E00E9455
:1007C0009700809122018F5F809322011092240173
:1007D0002FCF8BB18F778BB988B1806288B9C091E8
:1007E00024018FEF8C0F843008F022CFD0E02197C6
:1007F000CC0F8C2F880F880FC80FD0E0CE010E943D
:10080000A30090E09093890080938800CE01019628
:100810000E94A300882321F085B1806285B903C0BE
:1008200085B18F7D85B9CE0102960E94A3008823F1
:1008300021F088B1846088B903C088B18B7F88B902
:10084000CE0103960E94A30090E090938B008093CA
:100850008A00CE0104960E94A300882321F088B16B
:10086000886088B903C088B1877F88B9CE010596B2
:100870000E94A300882321F088B1806188B903C059
:1008800088B18F7E88B9CE0106960E94A30080931E
:10089000B300CE0107960E94A300882321F08BB1FC
:1008A00080628BB903C08BB18F7D8BB9CE01089666
:1008B0000E94A300882321F08BB180618BB903C013
:1008C0008BB18F7E8BB9CE0109960E94A3008093D5
:1008D000B400AECE8BB180688BB988B1806288B924
:1008E00080912101882309F4A7C0109221018091F1
:1008F0002601863799F540912001433078F15091D7
:10090000270180ED850F92E060E070E019C0E92FCB
:10091000F0E0EA5DFE4F208130ED320F3A3078F49E
:10092000FB01EE0FFF1F660F771F660F771F660F25
:10093000771F6E0F7F1F620F711D605371099F5FDC
:10094000941728F35153543030F46F3F710509F078
:1009500010F40E947D02109220016EC0809120014F
:10096000813009F069C0E09136018E2F90E0FC01E2
:10097000F097E434F10508F05DC0EC5CFF4F0C9497
:100980003D0885B1806285B988B18B7F88B988B10F
:10099000886088B988B18F7E88B94CC085B18F7D59
:1009A00085B988B1846088B988B1877F88B988B1F2
:1009B000806188B93FC085B1806285B988B18B7F7D
:1009C00088B988B1877F88B988B1806188B932C019
:1009D00085B18F7D85B988B1846088B988B1886018
:1009E00088B988B18F7E88B925C08BB180628BB9F8
:1009F0008BB18F7E8BB91EC08BB18F7D8BB98BB1C4
:100A000080618BB917C08BB18F7C8BB913C08FEF0E
:100A100090E00E943B010EC080E090E00E943B010C
:100A200009C060E08C2F0E949102CF5F01C0C1E03D
:100A3000C530B8F31092200180912101882309F478
:100A4000F7CD1092210180913601803371F485B188
:100A5000806285B988B1886088B988B18B7E88B991
:100A60008FEF90E00E943201E3CD80913601813317
:100A700071F485B18F7D85B988B1846188B988B1F9
:100A8000877F88B98FEF90E00E943201D1CD8091AD
:100A90003601823371F485B1806285B988B1837F74
:100AA00088B988B1806188B98FEF90E00E943201E7
:100AB000BFCD80913601833371F485B18F7D85B9C7
:100AC00088B18C6088B988B18F7E88B98FEF90E04B
:100AD0000E943201ADCD80913601833739F485B162
:100AE0008F7D85B988B1837E88B9A2CD809136018A
:100AF000843369F40E9425018BB180628BB98BB17C
:100B00008F7E8BB98FEF90E00E943E0191CD809156
:100B10003601853369F40E9425018BB18F7D8BB935
:100B20008BB180618BB98FEF90E00E943E0180CD48
:100B300080913601863309F07BCD8BB18F7C8BB9E8
:100B400077CD1F920F920FB60F9211242F933F93E0
:100B50004F935F936F937F938F939F93AF93BF93C5
:100B6000EF93FF938091C6008093360181E08093DC
:100B70002101809136010E941906809136018A3048
:100B800021F0809136018D3049F4E0912001F0E0B0
:100B9000EA5DFE4F1082109220010EC0E09120010C
:100BA000EF3050F481E08E0F80932001F0E08091CF
:100BB0003601EA5DFE4F8083FF91EF91BF91AF91C7
:100BC0009F918F917F916F915F914F913F912F9165
:100BD0000F900FBE0F901F9018951F920F920FB697
:100BE0000F9211248F934E9909C0809124018F5F39
:100BF00080932401853011F4109224018F910F907D
:100C00000FBE0F901F9018958AB182608AB98AB181
:100C10008E7F8AB91092C00088E98093C10086E077
:100C20008093C20087E690E09093C5008093C40053
:100C300008959091C00095FFFCCF8093C600089561
:100C40005058BB27AA270E9438060C9482070E949E
:100C5000740738F00E947B0720F039F49F3F19F4A5
:100C600026F40C9471070EF4E095E7FB0C946B07E7
:100C7000E92F0E94930758F3BA1762077307840796
:100C8000950720F079F4A6F50C94B5070EF4E095DD
:100C90000B2EBA2FA02D0B01B90190010C01CA0136
:100CA000A0011124FF27591B99F0593F50F4503EE1
:100CB00068F11A16F040A22F232F342F4427585FD3
:100CC000F3CF469537952795A795F0405395C9F7EB
:100CD0007EF41F16BA0B620B730B840BBAF09150A3
:100CE000A1F0FF0FBB1F661F771F881FC2F70EC042
:100CF000BA0F621F731F841F48F487957795679515
:100D0000B795F7959E3F08F0B0CF9395880F08F000
:100D10009927EE0F9795879508950E94A1060C9448
:100D200082070E947B0758F00E94740740F029F464
:100D30005F3F29F00C946B0751110C94B6070C948B
:100D400071070E94930768F39923B1F3552391F338
:100D5000951B550BBB27AA2762177307840738F02A
:100D60009F5F5F4F220F331F441FAA1FA9F335D087
:100D70000E2E3AF0E0E832D091505040E695001C3B
:100D8000CAF72BD0FE2F29D0660F771F881FBB1FF5
:100D9000261737074807AB07B0E809F0BB0B802DD3
:100DA000BF01FF2793585F4F3AF09E3F510578F0FF
:100DB0000C946B070C94B6075F3FE4F3983ED4F3B2
:100DC000869577956795B795F7959F5FC9F7880FD3
:100DD000911D9695879597F90895E1E0660F771F25
:100DE000881FBB1F621773078407BA0720F0621BB6
:100DF000730B840BBA0BEE1F88F7E09508950E94E1
:100E00009B0788F09F5798F0B92F9927B751B0F0FA
:100E1000E1F0660F771F881F991F1AF0BA95C9F77E
:100E200014C0B13091F00E94B507B1E008950C9460
:100E3000B507672F782F8827B85F39F0B93FCCF313
:100E4000869577956795B395D9F73EF490958095FB
:100E5000709561957F4F8F4F9F4F0895E89409C01B
:100E600097FB3EF490958095709561957F4F8F4FDD
:100E70009F4F9923A9F0F92F96E9BB279395F695F3
:100E8000879577956795B795F111F8CFFAF4BB0F71
:100E900011F460FF1BC06F5F7F4F8F4F9F4F16C0D5
:100EA000882311F096E911C0772321F09EE8872F5F
:100EB000762F05C0662371F096E8862F70E060E01B
:100EC0002AF09A95660F771F881FDAF7880F969594
:100ED000879597F9089597F99F6780E870E060E03B
:100EE00008959FEF80EC089500240A9416161706C3
:100EF00018060906089500240A941216130614060B
:100F000005060895092E0394000C11F4882352F06D
:100F1000BB0F40F4BF2B11F460FF04C06F5F7F4F25
:100F20008F4F9F4F089557FD9058440F551F59F00C
:100F30005F3F71F04795880F97FB991F61F09F3FC6
:100F400079F087950895121613061406551FF2CFEF
:100F50004695F1DF08C0161617061806991FF1CF3F
:100F600086957105610508940895E894BB27662766
:100F70007727CB0197F908950E94CF070C94820739
:100F80000E94740738F00E947B0720F0952311F02F
:100F90000C946B070C94710711240C94B6070E94F3
:100FA000930770F3959FC1F3950F50E0551F629F13
:100FB000F001729FBB27F00DB11D639FAA27F00DB2
:100FC000B11DAA1F649F6627B00DA11D661F829FD9
:100FD0002227B00DA11D621F739FB00DA11D621FBE
:100FE000839FA00D611D221F749F3327A00D611DDB
:100FF000231F849F600D211D822F762F6A2F1124BD
:101000009F5750409AF0F1F088234AF0EE0FFF1FEF
:10101000BB1F661F771F881F91505040A9F79E3F46
:10102000510580F00C946B070C94B6075F3FE4F316
:10103000983ED4F3869577956795B795F795E7959C
:101040009F5FC1F7FE2B880F911D9695879597F9A5
:10105000089597FB072E16F4009407D077FD09D06A
:101060000E94430807FC05D03EF4909581959F4F60
:101070000895709561957F4F0895EE0FFF1F0590BD
:10108000F491E02D0994AA1BBB1B51E107C0AA1FD4
:10109000BB1FA617B70710F0A61BB70B881F991F19
:1010A0005A95A9F780959095BC01CD010895F894C3
:0210B000FFCF70
:1010B20088002500280005028A0028002800030471
:1010C200B3002B002B000504B4002B002B000403FB
:00000001FF
