:100000000C9434000C943E000C943E000C943E0082
:100010000C943E000C943E000C943E000C943E0068
:100020000C943E000C943E000C943E000C943E0058
:100030000C943E000C943E000C943E000C943E0048
:100040000C943E000C943E000C943E000C943E0038
:100050000C943E000C943E000C943E000C943E0028
:100060000C943E000C943E0011241FBECFEFD8E04C
:10007000DEBFCDBF0E94D0010C9413040C9400008D
:10008000F8948FEF84B98CEF87B98AB180638AB90D
:100090007894089580E480937C0087E880937A00C8
:1000A0000895ECE7F0E09081907F8F70892B80833A
:1000B000EAE7F0E080818064808380917A0086FDA9
:1000C000FCCF8091780090917900089582EA809326
:1000D00080008DE1809381008FEF90E09093870006
:1000E0008093860084B1866084B9089581EA809304
:1000F000B00087E08093B1008AB188608AB984B18A
:10010000886084B9089590938900809388009093C3
:100110008B0080938A0008958093B40008958093A3
:10012000B3000895603E21E0720750F485B180620B
:1001300085B988B1886088B988B18B7E88B90895FF
:1001400069507240663F714050F485B18F7D85B92A
:1001500088B1846188B988B1877F88B90895803E65
:1001600021E0920750F485B1806285B988B1837F20
:1001700088B988B1806188B9089589509240863FD6
:10018000914050F485B18F7D85B988B18C6088B974
:1001900088B18F7E88B9089585B18F7D85B988B182
:1001A0008B7F88B988B1877F88B988B18F7E88B9FD
:1001B0000895803E21E0920728F5BC0180E090E0A0
:1001C0000E94180320E030E04FE753EC0E94A603A2
:1001D00020E030E040EF53E40E9477020E94E90201
:1001E00070E080E090E00E941A0320E030E04FE7EA
:1001F00053E40E940B020E94E902862F90E00E94C5
:10020000830008959C0129503240263F3140E8F494
:10021000BC0180E090E00E94180320E030E04FE74E
:1002200053E40E94A60320E030E84BEF53E40E9421
:1002300077022CE53FEC43E853E40E940A020E9457
:10024000E902862F90E00E9483000895803E21E01D
:10025000920728F5BC0180E090E00E94180320E09E
:1002600030E04FE753EC0E94A60320E030E040EF7F
:1002700053E40E9477020E94E90270E080E090E07F
:100280000E941A0320E030E04FE753E40E940B0283
:100290000E94E902862F90E00E94830008959C014D
:1002A00029503240263F3140E8F4BC0180E090E024
:1002B0000E94180320E030E04FE753E40E94A603B9
:1002C00020E030E84BEF53E40E9477022CE53FEC4E
:1002D00043E853E40E940A020E94E902862F90E05C
:1002E0000E9483000895803E21E0920758F52BB1CB
:1002F00020622BB92BB12F7E2BB9BC0180E090E09E
:100300000E94180320E030E04FE753EC0E94A60360
:1003100020E030E040EF53E40E9477020E94E902BF
:1003200070E080E090E00E941A0320E030E04FE7A8
:1003300053E40E940B020E94E902862F90E00E9483
:100340008F0008959C0129503240263F314020F50E
:100350002BB12F7D2BB92BB120612BB9BC0180E0D3
:1003600090E00E94180320E030E04FE753E40E9441
:10037000A60320E030E84BEF53E40E9477022CE51F
:100380003FEC43E853E40E940A020E94E902862FF0
:1003900090E00E948F0008958BB18F7C8BB90895F7
:1003A0000E9440000E944A000E94660080E00E9475
:1003B00051008C0181E00E945100EC01BC01C80198
:1003C0000E949200C8010E94D900CE010E9426011D
:1003D0000E94760087E00E945100BC0180E090E01E
:1003E0000E94180320E030E04FE753E40E94A60388
:1003F00020E030EC4FE754E40E9477020E94E902CB
:10040000862F90E00E948C0086E00E9451000E949E
:100410007301CACF5058BB27AA270E9422020C940E
:100420006C030E945E0338F00E94650320F039F4EB
:100430009F3F19F426F40C945B030EF4E095E7FB60
:100440000C945503E92F0E947D0358F3BA176207F5
:1004500073078407950720F079F4A6F50C949F03A1
:100460000EF4E0950B2EBA2FA02D0B01B9019001CF
:100470000C01CA01A0011124FF27591B99F0593F13
:1004800050F4503E68F11A16F040A22F232F342F5B
:100490004427585FF3CF469537952795A795F040A9
:1004A0005395C9F77EF41F16BA0B620B730B840BBE
:1004B000BAF09150A1F0FF0FBB1F661F771F881F76
:1004C000C2F70EC0BA0F621F731F841F48F48795CE
:1004D00077956795B795F7959E3F08F0B0CF9395C0
:1004E000880F08F09927EE0F9795879508950E9439
:1004F0008B020C946C030E94650358F00E945E030B
:1005000040F029F45F3F29F00C94550351110C94ED
:10051000A0030C945B030E947D0368F39923B1F35D
:10052000552391F3951B550BBB27AA276217730719
:10053000840738F09F5F5F4F220F331F441FAA1FAD
:10054000A9F335D00E2E3AF0E0E832D09150504069
:10055000E695001CCAF72BD0FE2F29D0660F771F17
:10056000881FBB1F261737074807AB07B0E809F0FD
:10057000BB0B802DBF01FF2793585F4F3AF09E3F82
:10058000510578F00C9455030C94A0035F3FE4F3FD
:10059000983ED4F3869577956795B795F7959F5FC5
:1005A000C9F7880F911D9695879597F90895E1E011
:1005B000660F771F881FBB1F621773078407BA0770
:1005C00020F0621B730B840BBA0BEE1F88F7E095CB
:1005D00008950E94850388F09F5798F0B92F9927B6
:1005E000B751B0F0E1F0660F771F881F991F1AF01E
:1005F000BA95C9F714C0B13091F00E949F03B1E0E1
:1006000008950C949F03672F782F8827B85F39F0DF
:10061000B93FCCF3869577956795B395D9F73EF4B6
:1006200090958095709561957F4F8F4F9F4F08955E
:10063000E89409C097FB3EF490958095709561957C
:100640007F4F8F4F9F4F9923A9F0F92F96E9BB2732
:100650009395F695879577956795B795F111F8CFAE
:10066000FAF4BB0F11F460FF1BC06F5F7F4F8F4F19
:100670009F4F16C0882311F096E911C0772321F00F
:100680009EE8872F762F05C0662371F096E8862FA7
:1006900070E060E02AF09A95660F771F881FDAF7FE
:1006A000880F9695879597F9089597F99F6780E841
:1006B00070E060E008959FEF80EC089500240A94B4
:1006C0001616170618060906089500240A9412162D
:1006D0001306140605060895092E0394000C11F460
:1006E000882352F0BB0F40F4BF2B11F460FF04C00D
:1006F0006F5F7F4F8F4F9F4F089557FD9058440F66
:10070000551F59F05F3F71F04795880F97FB991F70
:1007100061F09F3F79F0879508951216130614062D
:10072000551FF2CF4695F1DF08C0161617061806BA
:10073000991FF1CF86957105610508940895E89495
:10074000BB2766277727CB0197F908950E94B90345
:100750000C946C030E945E0338F00E94650320F045
:10076000952311F00C9455030C945B0311240C9405
:10077000A0030E947D0370F3959FC1F3950F50E095
:10078000551F629FF001729FBB27F00DB11D639F43
:10079000AA27F00DB11DAA1F649F6627B00DA11DE9
:1007A000661F829F2227B00DA11D621F739FB00D8F
:1007B000A11D621F839FA00D611D221F749F3327FF
:1007C000A00D611D231F849F600D211D822F762F98
:1007D0006A2F11249F5750409AF0F1F088234AF075
:1007E000EE0FFF1FBB1F661F771F881F91505040E1
:1007F000A9F79E3F510580F00C9455030C94A0037B
:100800005F3FE4F3983ED4F3869577956795B79567
:10081000F795E7959F5FC1F7FE2B880F911D969581
:0A082000879597F90895F894FFCF2B
:00000001FF
