:020000020000FC
:040000000C9422003A
:04000C000C945300FD
:100040000C9466000FEF0DBF08E00EBFF89400E8B7
:100050000093610004E00093610000E004BD03E050
:1000600005BD01E000936E000FEF07B90FEF0AB96D
:1000700000E004B90FEF05B903E000936B0001E065
:100080000093680000E00093C10040E020E07FEFB3
:1000900030E078940E947C000E94A6000E948100BB
:1000A0000E94A600F7CF0F930FB70F9353B1652FA0
:1000B00060FF0E94890061FF0E948D0048B901E045
:1000C00000931B000F910FBF0F9118950F930FB75F
:1000D0000F931395BAE02B1302C00E949300B6E071
:1000E0003B1302C00E9486001D3311F410E02395DB
:1000F0000F910FBF0F9118954598449A0E94980050
:1001000008954498459A0E949F00089530E020E0A9
:1001100008954F3031F043950895403039F04A95B5
:10012000089540E00895339520E008954FE0089544
:10013000F1E0EEE7E20FF11D04910BB90895F1E053
:10014000EEE7E30FF11DA491ABB908959FEF9A95E7
:100150009030E9F79FEF9A959030E9F79FEF9A95E5
:100160009030E9F708959A959030E9F708959A95B7
:100170009030E9F708959A959030E9F7089540791D
:0E018000243019120278001008034621060EE2
:00000001FF
